{
  "contractName": "Insurance",
  "abi": [
    {
      "constant": true,
      "inputs": [],
      "name": "h1",
      "outputs": [
        {
          "name": "",
          "type": "address"
        }
      ],
      "payable": false,
      "stateMutability": "view",
      "type": "function"
    },
    {
      "constant": true,
      "inputs": [],
      "name": "owner",
      "outputs": [
        {
          "name": "",
          "type": "address"
        }
      ],
      "payable": false,
      "stateMutability": "view",
      "type": "function"
    },
    {
      "constant": true,
      "inputs": [
        {
          "name": "",
          "type": "uint256"
        }
      ],
      "name": "h_account",
      "outputs": [
        {
          "name": "",
          "type": "address"
        }
      ],
      "payable": false,
      "stateMutability": "view",
      "type": "function"
    },
    {
      "constant": true,
      "inputs": [
        {
          "name": "",
          "type": "uint256"
        }
      ],
      "name": "policys_acc",
      "outputs": [
        {
          "name": "",
          "type": "address"
        }
      ],
      "payable": false,
      "stateMutability": "view",
      "type": "function"
    },
    {
      "constant": true,
      "inputs": [
        {
          "name": "",
          "type": "uint256"
        }
      ],
      "name": "b_account",
      "outputs": [
        {
          "name": "",
          "type": "address"
        }
      ],
      "payable": false,
      "stateMutability": "view",
      "type": "function"
    },
    {
      "constant": true,
      "inputs": [
        {
          "name": "",
          "type": "uint256"
        }
      ],
      "name": "p_account",
      "outputs": [
        {
          "name": "",
          "type": "address"
        }
      ],
      "payable": false,
      "stateMutability": "view",
      "type": "function"
    },
    {
      "inputs": [],
      "payable": true,
      "stateMutability": "payable",
      "type": "constructor"
    },
    {
      "payable": true,
      "stateMutability": "payable",
      "type": "fallback"
    },
    {
      "constant": false,
      "inputs": [
        {
          "name": "_address",
          "type": "address"
        },
        {
          "name": "_p_name",
          "type": "string"
        },
        {
          "name": "_age",
          "type": "uint256"
        },
        {
          "name": "_gender",
          "type": "string"
        },
        {
          "name": "_h_add",
          "type": "string"
        },
        {
          "name": "_email",
          "type": "string"
        },
        {
          "name": "_phone",
          "type": "uint256"
        }
      ],
      "name": "setPatients",
      "outputs": [],
      "payable": false,
      "stateMutability": "nonpayable",
      "type": "function"
    },
    {
      "constant": false,
      "inputs": [
        {
          "name": "_address",
          "type": "address"
        },
        {
          "name": "_bill_id",
          "type": "uint256"
        },
        {
          "name": "_date",
          "type": "string"
        },
        {
          "name": "_hospital_name",
          "type": "string"
        },
        {
          "name": "_bp",
          "type": "string"
        },
        {
          "name": "_sugar",
          "type": "string"
        },
        {
          "name": "_serious_illness",
          "type": "string"
        }
      ],
      "name": "setBill",
      "outputs": [],
      "payable": false,
      "stateMutability": "nonpayable",
      "type": "function"
    },
    {
      "constant": true,
      "inputs": [],
      "name": "getPatients",
      "outputs": [
        {
          "name": "",
          "type": "address[]"
        }
      ],
      "payable": false,
      "stateMutability": "view",
      "type": "function"
    },
    {
      "constant": true,
      "inputs": [
        {
          "name": "_address",
          "type": "address"
        }
      ],
      "name": "getPatientsByAddress",
      "outputs": [
        {
          "name": "",
          "type": "string"
        },
        {
          "name": "",
          "type": "uint256"
        },
        {
          "name": "",
          "type": "string"
        },
        {
          "name": "",
          "type": "string"
        },
        {
          "name": "",
          "type": "string"
        },
        {
          "name": "",
          "type": "uint256"
        }
      ],
      "payable": false,
      "stateMutability": "view",
      "type": "function"
    },
    {
      "constant": true,
      "inputs": [
        {
          "name": "_address",
          "type": "address"
        }
      ],
      "name": "getBillByAddress",
      "outputs": [
        {
          "name": "",
          "type": "uint256"
        },
        {
          "name": "",
          "type": "string"
        },
        {
          "name": "",
          "type": "string"
        },
        {
          "name": "",
          "type": "string"
        },
        {
          "name": "",
          "type": "string"
        },
        {
          "name": "",
          "type": "string"
        }
      ],
      "payable": false,
      "stateMutability": "view",
      "type": "function"
    },
    {
      "constant": true,
      "inputs": [],
      "name": "getbills",
      "outputs": [
        {
          "name": "",
          "type": "address[]"
        }
      ],
      "payable": false,
      "stateMutability": "view",
      "type": "function"
    },
    {
      "constant": false,
      "inputs": [
        {
          "name": "_address",
          "type": "address"
        },
        {
          "name": "_policy_type",
          "type": "string"
        }
      ],
      "name": "setPolicys",
      "outputs": [],
      "payable": false,
      "stateMutability": "nonpayable",
      "type": "function"
    },
    {
      "constant": true,
      "inputs": [
        {
          "name": "a",
          "type": "string"
        }
      ],
      "name": "compareStrings",
      "outputs": [
        {
          "name": "",
          "type": "uint256"
        }
      ],
      "payable": false,
      "stateMutability": "view",
      "type": "function"
    },
    {
      "constant": false,
      "inputs": [
        {
          "name": "_address",
          "type": "address"
        }
      ],
      "name": "premimum",
      "outputs": [
        {
          "name": "",
          "type": "uint256"
        }
      ],
      "payable": true,
      "stateMutability": "payable",
      "type": "function"
    },
    {
      "constant": true,
      "inputs": [],
      "name": "getbalance",
      "outputs": [
        {
          "name": "",
          "type": "uint256"
        }
      ],
      "payable": false,
      "stateMutability": "view",
      "type": "function"
    },
    {
      "constant": true,
      "inputs": [],
      "name": "getPolicys",
      "outputs": [
        {
          "name": "",
          "type": "address[]"
        }
      ],
      "payable": false,
      "stateMutability": "view",
      "type": "function"
    },
    {
      "constant": true,
      "inputs": [
        {
          "name": "_address",
          "type": "address"
        }
      ],
      "name": "getPolicysByAddress",
      "outputs": [
        {
          "name": "",
          "type": "string"
        },
        {
          "name": "",
          "type": "uint256"
        },
        {
          "name": "",
          "type": "uint256"
        },
        {
          "name": "",
          "type": "bool"
        },
        {
          "name": "",
          "type": "uint256"
        },
        {
          "name": "",
          "type": "string"
        }
      ],
      "payable": false,
      "stateMutability": "view",
      "type": "function"
    },
    {
      "constant": true,
      "inputs": [
        {
          "name": "_address",
          "type": "address"
        }
      ],
      "name": "getP_count",
      "outputs": [
        {
          "name": "",
          "type": "uint256"
        }
      ],
      "payable": false,
      "stateMutability": "view",
      "type": "function"
    },
    {
      "constant": true,
      "inputs": [
        {
          "name": "_address",
          "type": "address"
        }
      ],
      "name": "getP_claimed",
      "outputs": [
        {
          "name": "",
          "type": "bool"
        }
      ],
      "payable": false,
      "stateMutability": "view",
      "type": "function"
    },
    {
      "constant": false,
      "inputs": [
        {
          "name": "_address",
          "type": "address"
        },
        {
          "name": "_policy_id",
          "type": "uint256"
        },
        {
          "name": "_name",
          "type": "string"
        },
        {
          "name": "_bill_id",
          "type": "uint256"
        },
        {
          "name": "_description",
          "type": "string"
        },
        {
          "name": "_total_amount",
          "type": "uint256"
        }
      ],
      "name": "setHospitals",
      "outputs": [],
      "payable": false,
      "stateMutability": "nonpayable",
      "type": "function"
    },
    {
      "constant": false,
      "inputs": [
        {
          "name": "_address",
          "type": "address"
        },
        {
          "name": "_policy_id",
          "type": "uint256"
        },
        {
          "name": "_name",
          "type": "string"
        },
        {
          "name": "_bill_id",
          "type": "uint256"
        },
        {
          "name": "_description",
          "type": "string"
        },
        {
          "name": "_total_amount",
          "type": "uint256"
        }
      ],
      "name": "PatientsRemburseSubmision",
      "outputs": [],
      "payable": false,
      "stateMutability": "nonpayable",
      "type": "function"
    },
    {
      "constant": false,
      "inputs": [
        {
          "name": "_address",
          "type": "address"
        },
        {
          "name": "_policyid",
          "type": "uint256"
        }
      ],
      "name": "signRembursement",
      "outputs": [],
      "payable": false,
      "stateMutability": "nonpayable",
      "type": "function"
    },
    {
      "constant": true,
      "inputs": [
        {
          "name": "_address",
          "type": "address"
        }
      ],
      "name": "checkpolicy_id",
      "outputs": [
        {
          "name": "",
          "type": "bool"
        }
      ],
      "payable": false,
      "stateMutability": "view",
      "type": "function"
    },
    {
      "constant": true,
      "inputs": [],
      "name": "getHospitals",
      "outputs": [
        {
          "name": "",
          "type": "address[]"
        }
      ],
      "payable": false,
      "stateMutability": "view",
      "type": "function"
    },
    {
      "constant": true,
      "inputs": [
        {
          "name": "_address",
          "type": "address"
        }
      ],
      "name": "getHospitalsByAddress",
      "outputs": [
        {
          "name": "",
          "type": "uint256"
        },
        {
          "name": "",
          "type": "string"
        },
        {
          "name": "",
          "type": "uint256"
        },
        {
          "name": "",
          "type": "string"
        },
        {
          "name": "",
          "type": "uint256"
        },
        {
          "name": "",
          "type": "bool"
        }
      ],
      "payable": false,
      "stateMutability": "view",
      "type": "function"
    },
    {
      "constant": false,
      "inputs": [
        {
          "name": "_address",
          "type": "address"
        }
      ],
      "name": "claim",
      "outputs": [],
      "payable": true,
      "stateMutability": "payable",
      "type": "function"
    }
  ],
  "bytecode": "0x608060405273b1d8c41f5456461be02fb630baa09ceab2694c286000806101000a81548173ffffffffffffffffffffffffffffffffffffffff021916908373ffffffffffffffffffffffffffffffffffffffff16021790555033600860006101000a81548173ffffffffffffffffffffffffffffffffffffffff021916908373ffffffffffffffffffffffffffffffffffffffff16021790555061449d806100a86000396000f30060806040526004361061015f576000357c0100000000000000000000000000000000000000000000000000000000900463ffffffff168063068436041461016157806312ad1c37146101bc5780631aecb28b146102285780631e83409a14610294578063269923fc146102ca578063301a5b36146103365780633b251aa3146105445780633fa5c53a1461068c578063426cfd68146107d457806344bb73001461082b5780634d9b3d5d14610a9e5780634f86f50614610ac9578063539844f614610b465780635b76d8da14610ba1578063678e137914610d4c5780637e1648d914610dd55780638da5cb5b14610f44578063ab29fb5d14610f9b578063b497bc7a14610fe5578063c30a2d8c14611052578063c6916a30146110bf578063c7f4c0c91461112c578063c8260ee614611219578063dd80cc1314611270578063e9e47393146112bd578063f01e817314611329578063fa43c12c14611396575b005b34801561016d57600080fd5b506101a2600480360381019080803573ffffffffffffffffffffffffffffffffffffffff169060200190929190505050611483565b604051808215151515815260200191505060405180910390f35b3480156101c857600080fd5b506101d1611524565b6040518080602001828103825283818151815260200191508051906020019060200280838360005b838110156102145780820151818401526020810190506101f9565b505050509050019250505060405180910390f35b34801561023457600080fd5b5061023d6115b2565b6040518080602001828103825283818151815260200191508051906020019060200280838360005b83811015610280578082015181840152602081019050610265565b505050509050019250505060405180910390f35b6102c8600480360381019080803573ffffffffffffffffffffffffffffffffffffffff169060200190929190505050611640565b005b3480156102d657600080fd5b506102df611cea565b6040518080602001828103825283818151815260200191508051906020019060200280838360005b83811015610322578082015181840152602081019050610307565b505050509050019250505060405180910390f35b34801561034257600080fd5b50610377600480360381019080803573ffffffffffffffffffffffffffffffffffffffff169060200190929190505050611d78565b604051808060200187815260200180602001806020018060200186815260200185810385528b818151815260200191508051906020019080838360005b838110156103cf5780820151818401526020810190506103b4565b50505050905090810190601f1680156103fc5780820380516001836020036101000a031916815260200191505b50858103845289818151815260200191508051906020019080838360005b8381101561043557808201518184015260208101905061041a565b50505050905090810190601f1680156104625780820380516001836020036101000a031916815260200191505b50858103835288818151815260200191508051906020019080838360005b8381101561049b578082015181840152602081019050610480565b50505050905090810190601f1680156104c85780820380516001836020036101000a031916815260200191505b50858103825287818151815260200191508051906020019080838360005b838110156105015780820151818401526020810190506104e6565b50505050905090810190601f16801561052e5780820380516001836020036101000a031916815260200191505b509a505050505050505050505060405180910390f35b34801561055057600080fd5b50610585600480360381019080803573ffffffffffffffffffffffffffffffffffffffff169060200190929190505050612196565b60405180878152602001806020018681526020018060200185815260200184151515158152602001838103835288818151815260200191508051906020019080838360005b838110156105e55780820151818401526020810190506105ca565b50505050905090810190601f1680156106125780820380516001836020036101000a031916815260200191505b50838103825286818151815260200191508051906020019080838360005b8381101561064b578082015181840152602081019050610630565b50505050905090810190601f1680156106785780820380516001836020036101000a031916815260200191505b509850505050505050505060405180910390f35b34801561069857600080fd5b506106cd600480360381019080803573ffffffffffffffffffffffffffffffffffffffff16906020019092919050505061248b565b60405180806020018781526020018681526020018515151515815260200184815260200180602001838103835289818151815260200191508051906020019080838360005b8381101561072d578082015181840152602081019050610712565b50505050905090810190601f16801561075a5780820380516001836020036101000a031916815260200191505b50838103825284818151815260200191508051906020019080838360005b83811015610793578082015181840152602081019050610778565b50505050905090810190601f1680156107c05780820380516001836020036101000a031916815260200191505b509850505050505050505060405180910390f35b3480156107e057600080fd5b506107e9612773565b604051808273ffffffffffffffffffffffffffffffffffffffff1673ffffffffffffffffffffffffffffffffffffffff16815260200191505060405180910390f35b34801561083757600080fd5b5061086c600480360381019080803573ffffffffffffffffffffffffffffffffffffffff169060200190929190505050612798565b60405180878152602001806020018060200180602001806020018060200186810386528b818151815260200191508051906020019080838360005b838110156108c25780820151818401526020810190506108a7565b50505050905090810190601f1680156108ef5780820380516001836020036101000a031916815260200191505b5086810385528a818151815260200191508051906020019080838360005b8381101561092857808201518184015260208101905061090d565b50505050905090810190601f1680156109555780820380516001836020036101000a031916815260200191505b50868103845289818151815260200191508051906020019080838360005b8381101561098e578082015181840152602081019050610973565b50505050905090810190601f1680156109bb5780820380516001836020036101000a031916815260200191505b50868103835288818151815260200191508051906020019080838360005b838110156109f45780820151818401526020810190506109d9565b50505050905090810190601f168015610a215780820380516001836020036101000a031916815260200191505b50868103825287818151815260200191508051906020019080838360005b83811015610a5a578082015181840152602081019050610a3f565b50505050905090810190601f168015610a875780820380516001836020036101000a031916815260200191505b509b50505050505050505050505060405180910390f35b348015610aaa57600080fd5b50610ab3612c50565b6040518082815260200191505060405180910390f35b348015610ad557600080fd5b50610b30600480360381019080803590602001908201803590602001908080601f0160208091040260200160405190810160405280939291908181526020018383808284378201915050505050509192919290505050612c6f565b6040518082815260200191505060405180910390f35b348015610b5257600080fd5b50610b87600480360381019080803573ffffffffffffffffffffffffffffffffffffffff16906020019092919050505061313d565b604051808215151515815260200191505060405180910390f35b348015610bad57600080fd5b50610d4a600480360381019080803573ffffffffffffffffffffffffffffffffffffffff16906020019092919080359060200190929190803590602001908201803590602001908080601f0160208091040260200160405190810160405280939291908181526020018383808284378201915050505050509192919290803590602001908201803590602001908080601f0160208091040260200160405190810160405280939291908181526020018383808284378201915050505050509192919290803590602001908201803590602001908080601f0160208091040260200160405190810160405280939291908181526020018383808284378201915050505050509192919290803590602001908201803590602001908080601f0160208091040260200160405190810160405280939291908181526020018383808284378201915050505050509192919290803590602001908201803590602001908080601f01602080910402602001604051908101604052809392919081815260200183838082843782019150505050505091929192905050506131b1565b005b348015610d5857600080fd5b50610dd3600480360381019080803573ffffffffffffffffffffffffffffffffffffffff169060200190929190803590602001908201803590602001908080601f01602080910402602001604051908101604052809392919081815260200183838082843782019150505050505091929192905050506133a3565b005b348015610de157600080fd5b50610f42600480360381019080803573ffffffffffffffffffffffffffffffffffffffff169060200190929190803590602001908201803590602001908080601f016020809104026020016040519081016040528093929190818152602001838380828437820191505050505050919291929080359060200190929190803590602001908201803590602001908080601f0160208091040260200160405190810160405280939291908181526020018383808284378201915050505050509192919290803590602001908201803590602001908080601f0160208091040260200160405190810160405280939291908181526020018383808284378201915050505050509192919290803590602001908201803590602001908080601f0160208091040260200160405190810160405280939291908181526020018383808284378201915050505050509192919290803590602001909291905050506134e4565b005b348015610f5057600080fd5b50610f596136c6565b604051808273ffffffffffffffffffffffffffffffffffffffff1673ffffffffffffffffffffffffffffffffffffffff16815260200191505060405180910390f35b610fcf600480360381019080803573ffffffffffffffffffffffffffffffffffffffff1690602001909291905050506136ec565b6040518082815260200191505060405180910390f35b348015610ff157600080fd5b5061101060048036038101908080359060200190929190505050613844565b604051808273ffffffffffffffffffffffffffffffffffffffff1673ffffffffffffffffffffffffffffffffffffffff16815260200191505060405180910390f35b34801561105e57600080fd5b5061107d60048036038101908080359060200190929190505050613882565b604051808273ffffffffffffffffffffffffffffffffffffffff1673ffffffffffffffffffffffffffffffffffffffff16815260200191505060405180910390f35b3480156110cb57600080fd5b506110ea600480360381019080803590602001909291905050506138c0565b604051808273ffffffffffffffffffffffffffffffffffffffff1673ffffffffffffffffffffffffffffffffffffffff16815260200191505060405180910390f35b34801561113857600080fd5b50611217600480360381019080803573ffffffffffffffffffffffffffffffffffffffff16906020019092919080359060200190929190803590602001908201803590602001908080601f016020809104026020016040519081016040528093929190818152602001838380828437820191505050505050919291929080359060200190929190803590602001908201803590602001908080601f0160208091040260200160405190810160405280939291908181526020018383808284378201915050505050509192919290803590602001909291905050506138fe565b005b34801561122557600080fd5b5061125a600480360381019080803573ffffffffffffffffffffffffffffffffffffffff169060200190929190505050613d67565b6040518082815260200191505060405180910390f35b34801561127c57600080fd5b506112bb600480360381019080803573ffffffffffffffffffffffffffffffffffffffff16906020019092919080359060200190929190505050613db3565b005b3480156112c957600080fd5b506112d2613ebd565b6040518080602001828103825283818151815260200191508051906020019060200280838360005b838110156113155780820151818401526020810190506112fa565b505050509050019250505060405180910390f35b34801561133557600080fd5b5061135460048036038101908080359060200190929190505050613f4b565b604051808273ffffffffffffffffffffffffffffffffffffffff1673ffffffffffffffffffffffffffffffffffffffff16815260200191505060405180910390f35b3480156113a257600080fd5b50611481600480360381019080803573ffffffffffffffffffffffffffffffffffffffff16906020019092919080359060200190929190803590602001908201803590602001908080601f016020809104026020016040519081016040528093929190818152602001838380828437820191505050505050919291929080359060200190929190803590602001908201803590602001908080601f016020809104026020016040519081016040528093929190818152602001838380828437820191505050505050919291929080359060200190929190505050613f89565b005b6000600960008373ffffffffffffffffffffffffffffffffffffffff1673ffffffffffffffffffffffffffffffffffffffff16815260200190815260200160002060000154600560008473ffffffffffffffffffffffffffffffffffffffff1673ffffffffffffffffffffffffffffffffffffffff16815260200190815260200160002060010154141561151a576001905061151f565b600090505b919050565b606060028054806020026020016040519081016040528092919081815260200182805480156115a857602002820191906000526020600020905b8160009054906101000a900473ffffffffffffffffffffffffffffffffffffffff1673ffffffffffffffffffffffffffffffffffffffff168152602001906001019080831161155e575b5050505050905090565b6060600a80548060200260200160405190810160405280929190818152602001828054801561163657602002820191906000526020600020905b8160009054906101000a900473ffffffffffffffffffffffffffffffffffffffff1673ffffffffffffffffffffffffffffffffffffffff16815260200190600101908083116115ec575b5050505050905090565b6000600860009054906101000a900473ffffffffffffffffffffffffffffffffffffffff1673ffffffffffffffffffffffffffffffffffffffff163373ffffffffffffffffffffffffffffffffffffffff1614151561169e57600080fd5b600560008373ffffffffffffffffffffffffffffffffffffffff1673ffffffffffffffffffffffffffffffffffffffff1681526020019081526020016000209050600960008373ffffffffffffffffffffffffffffffffffffffff1673ffffffffffffffffffffffffffffffffffffffff168152602001908152602001600020600401546006600083600101548152602001908152602001600020600201541015151561174a57600080fd5b6002600560008473ffffffffffffffffffffffffffffffffffffffff1673ffffffffffffffffffffffffffffffffffffffff1681526020019081526020016000206004015414151561179b57600080fd5b600960008373ffffffffffffffffffffffffffffffffffffffff1673ffffffffffffffffffffffffffffffffffffffff16815260200190815260200160002060050160009054906101000a900460ff1615156117f657600080fd5b600660008260010154815260200190815260200160002060030160009054906101000a900460ff16151561182957600080fd5b61183282611483565b151561183d57600080fd5b60405160200180807f686f70000000000000000000000000000000000000000000000000000000000081525060030190506040516020818303038152906040526040518082805190602001908083835b6020831015156118b2578051825260208201915060208101905060208303925061188d565b6001836020036101000a0380198251168184511680821785525050505050509050019150506040518091039020600019166006600083600101548152602001908152602001600020600501604051602001808280546001816001161561010002031660029004801561195b5780601f1061193957610100808354040283529182019161195b565b820191906000526020600020905b815481529060010190602001808311611947575b50509150506040516020818303038152906040526040518082805190602001908083835b6020831015156119a4578051825260208201915060208101905060208303925061197f565b6001836020036101000a0380198251168184511680821785525050505050509050019150506040518091039020600019161415611a8a576000809054906101000a900473ffffffffffffffffffffffffffffffffffffffff1673ffffffffffffffffffffffffffffffffffffffff166108fc600960008573ffffffffffffffffffffffffffffffffffffffff1673ffffffffffffffffffffffffffffffffffffffff168152602001908152602001600020600401549081150290604051600060405180830381858888f19350505050158015611a84573d6000803e3d6000fd5b50611cb3565b60405160200180807f73656c660000000000000000000000000000000000000000000000000000000081525060040190506040516020818303038152906040526040518082805190602001908083835b602083101515611aff5780518252602082019150602081019050602083039250611ada565b6001836020036101000a03801982511681845116808217855250505050505090500191505060405180910390206000191660066000836001015481526020019081526020016000206005016040516020018082805460018160011615610100020316600290048015611ba85780601f10611b86576101008083540402835291820191611ba8565b820191906000526020600020905b815481529060010190602001808311611b94575b50509150506040516020818303038152906040526040518082805190602001908083835b602083101515611bf15780518252602082019150602081019050602083039250611bcc565b6001836020036101000a0380198251168184511680821785525050505050509050019150506040518091039020600019161415611cb2578173ffffffffffffffffffffffffffffffffffffffff166108fc600960008573ffffffffffffffffffffffffffffffffffffffff1673ffffffffffffffffffffffffffffffffffffffff168152602001908152602001600020600401549081150290604051600060405180830381858888f19350505050158015611cb0573d6000803e3d6000fd5b505b5b6000600660008360010154815260200190815260200160002060030160006101000a81548160ff0219169083151502179055505050565b60606007805480602002602001604051908101604052809291908181526020018280548015611d6e57602002820191906000526020600020905b8160009054906101000a900473ffffffffffffffffffffffffffffffffffffffff1673ffffffffffffffffffffffffffffffffffffffff1681526020019060010190808311611d24575b5050505050905090565b6060600060608060606000600160008873ffffffffffffffffffffffffffffffffffffffff1673ffffffffffffffffffffffffffffffffffffffff168152602001908152602001600020600001600160008973ffffffffffffffffffffffffffffffffffffffff1673ffffffffffffffffffffffffffffffffffffffff16815260200190815260200160002060010154600160008a73ffffffffffffffffffffffffffffffffffffffff1673ffffffffffffffffffffffffffffffffffffffff168152602001908152602001600020600201600160008b73ffffffffffffffffffffffffffffffffffffffff1673ffffffffffffffffffffffffffffffffffffffff168152602001908152602001600020600301600160008c73ffffffffffffffffffffffffffffffffffffffff1673ffffffffffffffffffffffffffffffffffffffff168152602001908152602001600020600401600160008d73ffffffffffffffffffffffffffffffffffffffff1673ffffffffffffffffffffffffffffffffffffffff16815260200190815260200160002060050154858054600181600116156101000203166002900480601f016020809104026020016040519081016040528092919081815260200182805460018160011615610100020316600290048015611fa65780601f10611f7b57610100808354040283529160200191611fa6565b820191906000526020600020905b815481529060010190602001808311611f8957829003601f168201915b50505050509550838054600181600116156101000203166002900480601f0160208091040260200160405190810160405280929190818152602001828054600181600116156101000203166002900480156120425780601f1061201757610100808354040283529160200191612042565b820191906000526020600020905b81548152906001019060200180831161202557829003601f168201915b50505050509350828054600181600116156101000203166002900480601f0160208091040260200160405190810160405280929190818152602001828054600181600116156101000203166002900480156120de5780601f106120b3576101008083540402835291602001916120de565b820191906000526020600020905b8154815290600101906020018083116120c157829003601f168201915b50505050509250818054600181600116156101000203166002900480601f01602080910402602001604051908101604052809291908181526020018280546001816001161561010002031660029004801561217a5780601f1061214f5761010080835404028352916020019161217a565b820191906000526020600020905b81548152906001019060200180831161215d57829003601f168201915b5050505050915095509550955095509550955091939550919395565b6000606060006060600080600960008873ffffffffffffffffffffffffffffffffffffffff1673ffffffffffffffffffffffffffffffffffffffff16815260200190815260200160002060000154600960008973ffffffffffffffffffffffffffffffffffffffff1673ffffffffffffffffffffffffffffffffffffffff168152602001908152602001600020600101600960008a73ffffffffffffffffffffffffffffffffffffffff1673ffffffffffffffffffffffffffffffffffffffff16815260200190815260200160002060020154600960008b73ffffffffffffffffffffffffffffffffffffffff1673ffffffffffffffffffffffffffffffffffffffff168152602001908152602001600020600301600960008c73ffffffffffffffffffffffffffffffffffffffff1673ffffffffffffffffffffffffffffffffffffffff16815260200190815260200160002060040154600960008d73ffffffffffffffffffffffffffffffffffffffff1673ffffffffffffffffffffffffffffffffffffffff16815260200190815260200160002060050160009054906101000a900460ff16848054600181600116156101000203166002900480601f0160208091040260200160405190810160405280929190818152602001828054600181600116156101000203166002900480156123d35780601f106123a8576101008083540402835291602001916123d3565b820191906000526020600020905b8154815290600101906020018083116123b657829003601f168201915b50505050509450828054600181600116156101000203166002900480601f01602080910402602001604051908101604052809291908181526020018280546001816001161561010002031660029004801561246f5780601f106124445761010080835404028352916020019161246f565b820191906000526020600020905b81548152906001019060200180831161245257829003601f168201915b5050505050925095509550955095509550955091939550919395565b606060008060008060606000600560008973ffffffffffffffffffffffffffffffffffffffff1673ffffffffffffffffffffffffffffffffffffffff1681526020019081526020016000209050600560008973ffffffffffffffffffffffffffffffffffffffff1673ffffffffffffffffffffffffffffffffffffffff168152602001908152602001600020600001600560008a73ffffffffffffffffffffffffffffffffffffffff1673ffffffffffffffffffffffffffffffffffffffff16815260200190815260200160002060010154600660008460010154815260200190815260200160002060020154600660008560010154815260200190815260200160002060030160009054906101000a900460ff16600560008d73ffffffffffffffffffffffffffffffffffffffff1673ffffffffffffffffffffffffffffffffffffffff16815260200190815260200160002060040154600560008e73ffffffffffffffffffffffffffffffffffffffff1673ffffffffffffffffffffffffffffffffffffffff168152602001908152602001600020600501858054600181600116156101000203166002900480601f0160208091040260200160405190810160405280929190818152602001828054600181600116156101000203166002900480156126ba5780601f1061268f576101008083540402835291602001916126ba565b820191906000526020600020905b81548152906001019060200180831161269d57829003601f168201915b50505050509550808054600181600116156101000203166002900480601f0160208091040260200160405190810160405280929190818152602001828054600181600116156101000203166002900480156127565780601f1061272b57610100808354040283529160200191612756565b820191906000526020600020905b81548152906001019060200180831161273957829003601f168201915b505050505090509650965096509650965096505091939550919395565b6000809054906101000a900473ffffffffffffffffffffffffffffffffffffffff1681565b60006060806060806060600360008873ffffffffffffffffffffffffffffffffffffffff1673ffffffffffffffffffffffffffffffffffffffff16815260200190815260200160002060000154600360008973ffffffffffffffffffffffffffffffffffffffff1673ffffffffffffffffffffffffffffffffffffffff168152602001908152602001600020600101600360008a73ffffffffffffffffffffffffffffffffffffffff1673ffffffffffffffffffffffffffffffffffffffff168152602001908152602001600020600201600360008b73ffffffffffffffffffffffffffffffffffffffff1673ffffffffffffffffffffffffffffffffffffffff168152602001908152602001600020600301600360008c73ffffffffffffffffffffffffffffffffffffffff1673ffffffffffffffffffffffffffffffffffffffff168152602001908152602001600020600401600360008d73ffffffffffffffffffffffffffffffffffffffff1673ffffffffffffffffffffffffffffffffffffffff168152602001908152602001600020600501848054600181600116156101000203166002900480601f0160208091040260200160405190810160405280929190818152602001828054600181600116156101000203166002900480156129c45780601f10612999576101008083540402835291602001916129c4565b820191906000526020600020905b8154815290600101906020018083116129a757829003601f168201915b50505050509450838054600181600116156101000203166002900480601f016020809104026020016040519081016040528092919081815260200182805460018160011615610100020316600290048015612a605780601f10612a3557610100808354040283529160200191612a60565b820191906000526020600020905b815481529060010190602001808311612a4357829003601f168201915b50505050509350828054600181600116156101000203166002900480601f016020809104026020016040519081016040528092919081815260200182805460018160011615610100020316600290048015612afc5780601f10612ad157610100808354040283529160200191612afc565b820191906000526020600020905b815481529060010190602001808311612adf57829003601f168201915b50505050509250818054600181600116156101000203166002900480601f016020809104026020016040519081016040528092919081815260200182805460018160011615610100020316600290048015612b985780601f10612b6d57610100808354040283529160200191612b98565b820191906000526020600020905b815481529060010190602001808311612b7b57829003601f168201915b50505050509150808054600181600116156101000203166002900480601f016020809104026020016040519081016040528092919081815260200182805460018160011615610100020316600290048015612c345780601f10612c0957610100808354040283529160200191612c34565b820191906000526020600020905b815481529060010190602001808311612c1757829003601f168201915b5050505050905095509550955095509550955091939550919395565b60003073ffffffffffffffffffffffffffffffffffffffff1631905090565b60006001151560405160200180807f610000000000000000000000000000000000000000000000000000000000000081525060010190506040516020818303038152906040526040518082805190602001908083835b602083101515612cea5780518252602082019150602081019050602083039250612cc5565b6001836020036101000a038019825116818451168082178552505050505050905001915050604051809103902060001916836040516020018082805190602001908083835b602083101515612d545780518252602082019150602081019050602083039250612d2f565b6001836020036101000a0380198251168184511680821785525050505050509050019150506040516020818303038152906040526040518082805190602001908083835b602083101515612dbd5780518252602082019150602081019050602083039250612d98565b6001836020036101000a0380198251168184511680821785525050505050509050019150506040518091039020600019161415151415612e07576729a2241af62c00009050613138565b6001151560405160200180807f620000000000000000000000000000000000000000000000000000000000000081525060010190506040516020818303038152906040526040518082805190602001908083835b602083101515612e805780518252602082019150602081019050602083039250612e5b565b6001836020036101000a038019825116818451168082178552505050505050905001915050604051809103902060001916836040516020018082805190602001908083835b602083101515612eea5780518252602082019150602081019050602083039250612ec5565b6001836020036101000a0380198251168184511680821785525050505050509050019150506040516020818303038152906040526040518082805190602001908083835b602083101515612f535780518252602082019150602081019050602083039250612f2e565b6001836020036101000a0380198251168184511680821785525050505050509050019150506040518091039020600019161415151415612f9d57671bc16d674ec800009050613138565b6001151560405160200180807f630000000000000000000000000000000000000000000000000000000000000081525060010190506040516020818303038152906040526040518082805190602001908083835b6020831015156130165780518252602082019150602081019050602083039250612ff1565b6001836020036101000a038019825116818451168082178552505050505050905001915050604051809103902060001916836040516020018082805190602001908083835b602083101515613080578051825260208201915060208101905060208303925061305b565b6001836020036101000a0380198251168184511680821785525050505050509050019150506040516020818303038152906040526040518082805190602001908083835b6020831015156130e957805182526020820191506020810190506020830392506130c4565b6001836020036101000a038019825116818451168082178552505050505050905001915050604051809103902060001916141515141561313357670de0b6b3a76400009050613138565b600090505b919050565b600080600560008473ffffffffffffffffffffffffffffffffffffffff1673ffffffffffffffffffffffffffffffffffffffff1681526020019081526020016000209050600660008260010154815260200190815260200160002060030160009054906101000a900460ff16915050919050565b6000600860009054906101000a900473ffffffffffffffffffffffffffffffffffffffff1673ffffffffffffffffffffffffffffffffffffffff163373ffffffffffffffffffffffffffffffffffffffff161415801561325e57506000809054906101000a900473ffffffffffffffffffffffffffffffffffffffff1673ffffffffffffffffffffffffffffffffffffffff163373ffffffffffffffffffffffffffffffffffffffff1614155b151561326957600080fd5b600360008973ffffffffffffffffffffffffffffffffffffffff1673ffffffffffffffffffffffffffffffffffffffff1681526020019081526020016000209050868160000181905550858160010190805190602001906132cb9291906143cc565b50848160020190805190602001906132e49291906143cc565b50838160030190805190602001906132fd9291906143cc565b50828160040190805190602001906133169291906143cc565b508181600501908051906020019061332f9291906143cc565b50600160048990806001815401808255809150509060018203906000526020600020016000909192909190916101000a81548173ffffffffffffffffffffffffffffffffffffffff021916908373ffffffffffffffffffffffffffffffffffffffff16021790555050505050505050505050565b6000600560008473ffffffffffffffffffffffffffffffffffffffff1673ffffffffffffffffffffffffffffffffffffffff1681526020019081526020016000209050818160000190805190602001906133fe9291906143cc565b50613407614397565b60ff16816001018190555061341b82612c6f565b6006600083600101548152602001908152602001600020600201819055506001600660008360010154815260200190815260200160002060030160006101000a81548160ff02191690831515021790555060008160040181905550600160078490806001815401808255809150509060018203906000526020600020016000909192909190916101000a81548173ffffffffffffffffffffffffffffffffffffffff021916908373ffffffffffffffffffffffffffffffffffffffff1602179055505050505050565b6000600860009054906101000a900473ffffffffffffffffffffffffffffffffffffffff1673ffffffffffffffffffffffffffffffffffffffff163373ffffffffffffffffffffffffffffffffffffffff161415801561359157506000809054906101000a900473ffffffffffffffffffffffffffffffffffffffff1673ffffffffffffffffffffffffffffffffffffffff163373ffffffffffffffffffffffffffffffffffffffff1614155b151561359c57600080fd5b600160008973ffffffffffffffffffffffffffffffffffffffff1673ffffffffffffffffffffffffffffffffffffffff1681526020019081526020016000209050868160000190805190602001906135f59291906143cc565b50858160010181905550848160020190805190602001906136179291906143cc565b50838160030190805190602001906136309291906143cc565b50828160040190805190602001906136499291906143cc565b50818160050181905550600160028990806001815401808255809150509060018203906000526020600020016000909192909190916101000a81548173ffffffffffffffffffffffffffffffffffffffff021916908373ffffffffffffffffffffffffffffffffffffffff16021790555050505050505050505050565b600860009054906101000a900473ffffffffffffffffffffffffffffffffffffffff1681565b60006002600560008473ffffffffffffffffffffffffffffffffffffffff1673ffffffffffffffffffffffffffffffffffffffff1681526020019081526020016000206004015410151561373f57600080fd5b600560008373ffffffffffffffffffffffffffffffffffffffff1673ffffffffffffffffffffffffffffffffffffffff16815260200190815260200160002060040160008154809291906001019190505550600860009054906101000a900473ffffffffffffffffffffffffffffffffffffffff1673ffffffffffffffffffffffffffffffffffffffff166108fc349081150290604051600060405180830381858888f193505050501580156137f9573d6000803e3d6000fd5b50600560008373ffffffffffffffffffffffffffffffffffffffff1673ffffffffffffffffffffffffffffffffffffffff168152602001908152602001600020600401549050919050565b600a8181548110151561385357fe5b906000526020600020016000915054906101000a900473ffffffffffffffffffffffffffffffffffffffff1681565b60078181548110151561389157fe5b906000526020600020016000915054906101000a900473ffffffffffffffffffffffffffffffffffffffff1681565b6004818154811015156138cf57fe5b906000526020600020016000915054906101000a900473ffffffffffffffffffffffffffffffffffffffff1681565b600080600860009054906101000a900473ffffffffffffffffffffffffffffffffffffffff1673ffffffffffffffffffffffffffffffffffffffff163373ffffffffffffffffffffffffffffffffffffffff16141580156139ac57506000809054906101000a900473ffffffffffffffffffffffffffffffffffffffff1673ffffffffffffffffffffffffffffffffffffffff163373ffffffffffffffffffffffffffffffffffffffff1614155b15156139b757600080fd5b600560008973ffffffffffffffffffffffffffffffffffffffff1673ffffffffffffffffffffffffffffffffffffffff1681526020019081526020016000209150600660008360010154815260200190815260200160002060030160009054906101000a900460ff161515613a2b57600080fd5b868260010154141515613a3d57600080fd5b8260066000846001015481526020019081526020016000206002015410151515613a6657600080fd5b6040516020018060000190506040516020818303038152906040526040518082805190602001908083835b602083101515613ab65780518252602082019150602081019050602083039250613a91565b6001836020036101000a03801982511681845116808217855250505050505090500191505060405180910390206000191660066000846001015481526020019081526020016000206005016040516020018082805460018160011615610100020316600290048015613b5f5780601f10613b3d576101008083540402835291820191613b5f565b820191906000526020600020905b815481529060010190602001808311613b4b575b50509150506040516020818303038152906040526040518082805190602001908083835b602083101515613ba85780518252602082019150602081019050602083039250613b83565b6001836020036101000a038019825116818451168082178552505050505050905001915050604051809103902060001916141515613be557600080fd5b6040805190810160405280600481526020017f73656c660000000000000000000000000000000000000000000000000000000081525060066000846001015481526020019081526020016000206005019080519060200190613c489291906143cc565b50600960008973ffffffffffffffffffffffffffffffffffffffff1673ffffffffffffffffffffffffffffffffffffffff168152602001908152602001600020905086816000018190555085816001019080519060200190613cab9291906143cc565b5084816002018190555083816003019080519060200190613ccd9291906143cc565b5082816004018190555060008160050160006101000a81548160ff0219169083151502179055506001600a8990806001815401808255809150509060018203906000526020600020016000909192909190916101000a81548173ffffffffffffffffffffffffffffffffffffffff021916908373ffffffffffffffffffffffffffffffffffffffff16021790555050505050505050505050565b6000600560008373ffffffffffffffffffffffffffffffffffffffff1673ffffffffffffffffffffffffffffffffffffffff168152602001908152602001600020600401549050919050565b6000809054906101000a900473ffffffffffffffffffffffffffffffffffffffff1673ffffffffffffffffffffffffffffffffffffffff163373ffffffffffffffffffffffffffffffffffffffff16141515613e0e57600080fd5b80600560008473ffffffffffffffffffffffffffffffffffffffff1673ffffffffffffffffffffffffffffffffffffffff16815260200190815260200160002060010154141515613e5e57600080fd5b6001600960008473ffffffffffffffffffffffffffffffffffffffff1673ffffffffffffffffffffffffffffffffffffffff16815260200190815260200160002060050160006101000a81548160ff0219169083151502179055505050565b60606004805480602002602001604051908101604052809291908181526020018280548015613f4157602002820191906000526020600020905b8160009054906101000a900473ffffffffffffffffffffffffffffffffffffffff1673ffffffffffffffffffffffffffffffffffffffff1681526020019060010190808311613ef7575b5050505050905090565b600281815481101515613f5a57fe5b906000526020600020016000915054906101000a900473ffffffffffffffffffffffffffffffffffffffff1681565b6000806000809054906101000a900473ffffffffffffffffffffffffffffffffffffffff1673ffffffffffffffffffffffffffffffffffffffff163373ffffffffffffffffffffffffffffffffffffffff16141515613fe757600080fd5b600560008973ffffffffffffffffffffffffffffffffffffffff1673ffffffffffffffffffffffffffffffffffffffff1681526020019081526020016000209150600660008360010154815260200190815260200160002060030160009054906101000a900460ff16151561405b57600080fd5b86826001015414151561406d57600080fd5b826006600084600101548152602001908152602001600020600201541015151561409657600080fd5b6040516020018060000190506040516020818303038152906040526040518082805190602001908083835b6020831015156140e657805182526020820191506020810190506020830392506140c1565b6001836020036101000a0380198251168184511680821785525050505050509050019150506040518091039020600019166006600084600101548152602001908152602001600020600501604051602001808280546001816001161561010002031660029004801561418f5780601f1061416d57610100808354040283529182019161418f565b820191906000526020600020905b81548152906001019060200180831161417b575b50509150506040516020818303038152906040526040518082805190602001908083835b6020831015156141d857805182526020820191506020810190506020830392506141b3565b6001836020036101000a03801982511681845116808217855250505050505090500191505060405180910390206000191614151561421557600080fd5b6040805190810160405280600381526020017f686f700000000000000000000000000000000000000000000000000000000000815250600660008460010154815260200190815260200160002060050190805190602001906142789291906143cc565b50600960008973ffffffffffffffffffffffffffffffffffffffff1673ffffffffffffffffffffffffffffffffffffffff1681526020019081526020016000209050868160000181905550858160010190805190602001906142db9291906143cc565b50848160020181905550838160030190805190602001906142fd9291906143cc565b5082816004018190555060018160050160006101000a81548160ff0219169083151502179055506001600a8990806001815401808255809150509060018203906000526020600020016000909192909190916101000a81548173ffffffffffffffffffffffffffffffffffffffff021916908373ffffffffffffffffffffffffffffffffffffffff16021790555050505050505050505050565b600060fb424460405180838152602001828152602001925050506040518091039020600190048115156143c657fe5b06905090565b828054600181600116156101000203166002900490600052602060002090601f016020900481019282601f1061440d57805160ff191683800117855561443b565b8280016001018555821561443b579182015b8281111561443a57825182559160200191906001019061441f565b5b509050614448919061444c565b5090565b61446e91905b8082111561446a576000816000905550600101614452565b5090565b905600a165627a7a72305820f07fb6ad5b37ee5261d57acaf9566cccb7448dc48ed0097e08ddf282b88aa5080029",
  "source": "pragma solidity  0.4.24;\n\n/*\nAddress of patient is considered as unique identification number for all the form fill.\n*/\ncontract Insurance{\n   \n//intialise the hospital  address as fixed\n\naddress public h1 =0xb1D8c41F5456461be02Fb630bAa09cEAb2694C28;\n//hard code it as last account of ganache\n\n//registration of patient into blockchain\n\n    struct Patients {\n        string p_name;\n        uint age;\n        string gender;\n        string h_add;\n        string email;\n        uint256 phone;\n\n       \n       \n       // bool signed;\n    }\n   struct Bill{\n        uint bill_id;\n        string date;\n        string hospital_name;\n        string bp;\n        string sugar;\n        string serious_illness;\n   }\n// patient buys the policy\n\n    struct Policys{\n        string policy_type;      //a b c and for others is zero\n        uint policy_id;         // this will be generated automatically\n        uint coverage;      //this will be automatically assigned upon choosing the type\n        bool claimed;\n        uint p_count;\n        string status;\n    }\n   \n//the storage of patient details from hospital side so hospital account is used\n\n    struct Hospital{\n        uint policy_id;          //the autogenrated id should be sent here\n        string name;             //patient name\n        uint bill_id;           // patients checkup id\n        string description;     //what happened to patient\n        uint total_amount;      // cost of hospitality\n        bool signed;\n       \n    }\n   \n// a default value preset during deploying\n\n     constructor() public payable {\n        owner = msg.sender;\n        //startTime = now;\n    }\n   \n//owner cant be patient\n\n     modifier notOwner() {\n        require(msg.sender != owner && msg.sender != h1 );\n        _;\n    }\n   \n// p_accounts give a set of accounts registered as patient    \n\n    mapping (address => Patients) patients;\n    address[] public p_account;\n     \n/*\nswitch the account to patient account.\nData is stored and accessed according to the address of the sender.\nyou have to enter patients account address.\ndate is just a string which can be stored accordingly by front end.\n*/\n    function setPatients(address _address, string _p_name , uint _age,string _gender,\n    string _h_add,string _email,uint256 _phone\n    ) public notOwner{\n       \n        var patient = patients[_address];\n       \n        patient.p_name =_p_name;\n        patient.age = _age;\n        patient.gender = _gender;\n        patient.h_add = _h_add;\n        patient.email = _email;\n        patient.phone = _phone;\n\n        p_account.push(_address) -1;\n    }\n   \n    mapping (address => Bill) bills;\n    address[] public b_account;\n   \n    function setBill(address _address,uint _bill_id, string _date ,\n    string _hospital_name, string _bp, string _sugar,\n    string _serious_illness)public notOwner{\n        var bill = bills[_address];\n       \n        bill.bill_id = _bill_id;\n        bill.date = _date;\n        bill.hospital_name = _hospital_name;\n        //patient.signed = true;\n        bill.bp = _bp;\n        bill.sugar = _sugar;\n        bill.serious_illness = _serious_illness;\n        b_account.push(_address) -1;\n    }\n   \n// gives array of registered patients in chain  \n\n    function getPatients() view public returns(address[]) {\n        return p_account;\n    }\n   \n//gives the details of the patients when account address is specified  \n\n    function getPatientsByAddress(address _address) view public returns (\n        string, uint,string,string,string,uint256\n        ) { return ( patients[_address].p_name, patients[_address].age,\n    patients[_address].gender,patients[_address].h_add,\n    patients[_address].email,patients[_address].phone\n\n\n    );\n    }\n   \n    function getBillByAddress(address _address) view public returns (\n    uint, string,string,string,string,string\n     ) {return (bills[_address].bill_id, bills[_address].date ,\n     bills[_address].hospital_name, bills[_address].bp,\n     bills[_address].sugar,\n     bills[_address].serious_illness\n    ) ;\n    }\n   \n     function getbills() view public returns(address[]) {\n        return b_account;\n    }\n   \n/*\nswitch the account to patient account.\nData is stored and accessed according to the address of the sender.\nyou have to choose a or b or c as policy type.\nthe coverage amount is automatically given considering the policy type taken.\nA random policy id is generated, this is the most important during claiming process.\n*/\n\n    mapping (address => Policys) policys;\n    mapping(uint=>Policys) policyids;\n    address[] public policys_acc;\n \n// address of the patient is used to choose the policy type.\n\n    function setPolicys(address _address, string _policy_type ) public {\n        var policy = policys[_address];\n        //require(patients[_address]);\n        policy.policy_type = _policy_type;\n        policy.policy_id = random();\n        policyids[policy.policy_id].coverage = compareStrings(_policy_type);\n        policyids[policy.policy_id].claimed = true;//so now he can claim after paying two times premium\n        policy.p_count = 0;\n       \n        policys_acc.push(_address)-1;\n    }\n\n/*\nrandom unique number is generated, value not greater than 251 for policy id.\nkeccak256 a hashing function.\n*/\n    function random() private view returns (uint8) {\n       return uint8(uint256(keccak256(block.timestamp, block.difficulty))%251);\n   }\n   \n   \n/*\nthe type of policy choosen is compared\nand then the coverage value is returned to the set policy function\nThe coverage value are in wei uint\n1 ether is 10^18wei\n*/\n\n     function compareStrings (string memory a) public view\n       returns (uint256){\n        if (keccak256(abi.encodePacked((a))) == keccak256(abi.encodePacked((\"a\"))) == true)\n            return 3*(10**18);\n        else if (keccak256(abi.encodePacked((a))) == keccak256(abi.encodePacked((\"b\"))) == true)\n            return 2*(10**18);\n        else if (keccak256(abi.encodePacked((a))) == keccak256(abi.encodePacked((\"c\"))) == true)\n            return 1*(10**18);\n        else\n        return 0;\n       }\n       \n/*\nmsg.value needs to be given a particular ether for transfering of ether with accounts\nThe premium should be paid by the patient to onwer i.e Insurance people\nthe premium at the moment is considered as 1:3\nif 10 is the coverage premium is 1/3rd of 10\n*/\n     function premimum( address _address) payable public returns(uint256){\n       \n        require(policys[_address].p_count<2);\n        policys[_address].p_count++;\n        //am= policys[_address].coverage;\n        //owner.transfer(policys[_address].coverage);\n        owner.transfer(msg.value);\n        return policys[_address].p_count;\n    }\n\n/*\nThe balance of contract is shown here.\nthis is the amount that would be used for transaction\n*/\n    function getbalance() public view returns(uint256){\n        return address(this).balance;\n    }\n\n/*\ngives the registered patients list\n*/\n\n    function getPolicys() view public returns(address[]) {\n        return policys_acc;\n    }\n\n/*\ngives the details of patients policy\n*/\n    function getPolicysByAddress(address _address) view public returns (string,uint,uint,bool,uint,string){\n        var policy = policys[_address];\n        return ( policys[_address].policy_type, policys[_address].policy_id, policyids[policy.policy_id].coverage, policyids[policy.policy_id].claimed,policys[_address].p_count,policys[_address].status);\n    }\n   \n   function getP_count(address _address) view public returns (uint){\n        return (policys[_address].p_count);\n    }\n     function getP_claimed(address _address) view public returns (bool){\n     \n      var policy = policys[_address];\n      return(policyids[policy.policy_id].claimed);\n    }\n/*\nonly hospital address can be used to feed patient data\n*/\n   \n    address public owner;\n\n    modifier onlyhosp() {\n        require(msg.sender == h1);\n         \n        _;\n    }\n\n \n    mapping (address => Hospital) hospitals;\n    address[] public h_account;\n \n/*\nswitch account to hospital account\nthe details of patient is feed also the address of patient\nthe policy id given when policy is generated is only taken\n*/\n\n    function setHospitals(address _address,uint _policy_id, string _name , uint _bill_id, string _description ,uint _total_amount) public onlyhosp {\n        var policy = policys[_address];\n        require(policyids[policy.policy_id].claimed);\n        require(policy.policy_id==_policy_id);\n        require(policyids[policy.policy_id].coverage>=_total_amount);\n\n        require((keccak256(abi.encodePacked((policyids[policy.policy_id].status))))==(keccak256(abi.encodePacked((\"\")))));\n        policyids[policy.policy_id].status =\"hop\";\n       \n        var hospital = hospitals[_address]; //address of patient\n        hospital.policy_id = _policy_id;\n        hospital.name =_name;\n        hospital.bill_id = _bill_id;\n        hospital.description = _description;\n        hospital.total_amount = _total_amount;\n        hospital.signed = true;\n       \n        h_account.push(_address) -1;\n    }\n   \n/*\nPatientsRemburseSubmision form\nswitch to patient account enter details similar ti setpatients\n*/\n\n   \n   function PatientsRemburseSubmision (address _address,uint _policy_id, string _name , uint _bill_id, string _description ,uint _total_amount) public notOwner{\n       var policy = policys[_address];\n       require(policyids[policy.policy_id].claimed);\n       require(policy.policy_id==_policy_id);\n       require(policyids[policy.policy_id].coverage>=_total_amount);\n       \n      require((keccak256(abi.encodePacked((policyids[policy.policy_id].status))))==(keccak256(abi.encodePacked((\"\")))));\n       policyids[policy.policy_id].status =\"self\";\n       \n       var hospital = hospitals[_address]; //address of patient\n        hospital.policy_id = _policy_id;\n        hospital.name =_name;\n        hospital.bill_id = _bill_id;\n        hospital.description = _description;\n        hospital.total_amount = _total_amount;\n       \n        hospital.signed=false;\n        h_account.push(_address) -1;\n    }\n\n/*\nswitch to hospital\nits approved seeing the patient being legitimate\n*/\n\n    function  signRembursement(address _address,uint256 _policyid) public onlyhosp{\n        require(policys[_address].policy_id==_policyid);\n        hospitals[_address].signed=true;\n    }\n   \n/*\nthis function checks if the patients policy id matches with the one he buyed\nif its true then only the claim proccess should be allowed\nthis is to be connected in front end\n*/\n\n     function checkpolicy_id(address _address) view public returns (bool){\n        if(policys[_address].policy_id ==hospitals[_address].policy_id)\n        //changes();\n        return true;\n        else\n        return false;\n    }\n\n/*\nthe list of hospital patients accounts registered is shown\n*/\n   \n    function getHospitals() view public returns(address[]) {\n        return h_account;\n    }\n\n/*\nthe data entered by hopital admin can be accessed using patient addresss\n*/\n   \n    function getHospitalsByAddress(address _address) view public returns (uint, string, uint, string, uint,bool) {\n        return (hospitals[_address].policy_id, hospitals[_address].name, hospitals[_address].bill_id, hospitals[_address].description, hospitals[_address].total_amount,hospitals[_address].signed);\n    }\n   \n/*\nswitch to owner account\nthe claim is processed only by the owner i.e Insurance\n*/\n   \n    uint256 startTime;\n\n/*\ntimestamp code\nmodifier onlyWhileOpen() {\n        require(block.timestamp >= startTime+30);\n        _;\n    }\n*/\n   \n     modifier onlyInsure() {\n        // onlyWhileOpen;\n        // require(block.timestamp >= startTime+30);\n        require( msg.sender == owner);\n        _;\n    }\n\n/*\nmsg.value needs to set so that it will be sent to contract\nfor transerfing of ether from owner to patient account\nfallback function\n*/\n   \n    function ()  payable public {\n       \n    }\n   /*\n   function checkdesp(address _address) view public returns (string){\n       if((keccak256(abi.encodePacked(hospitals[_address].description)))==(\n       (keccak256(abi.encodePacked((\"jaundice\")))) || (keccak256(abi.encodePacked((\"dengue\"))))||\n        (keccak256(abi.encodePacked((\"malaria\"))))))\n        {\n             return \"c\";\n        }\n        if ((keccak256(abi.encodePacked(hospitals[_address].description)))==(\n       (keccak256(abi.encodePacked((\"heart attack\")))) || (keccak256(abi.encodePacked((\"Preganent\"))))||\n        (keccak256(abi.encodePacked((\"kidney stroke\"))))))\n        {\n            return \"b\";\n           \n        }\n            if ((keccak256(abi.encodePacked(hospitals[_address].description)))==(\n       (keccak256(abi.encodePacked((\"cancer\")))) || (keccak256(abi.encodePacked((\"covid 19\"))))||\n        (keccak256(abi.encodePacked((\"brain hemarge\"))))))\n        {\n            return \"a\";\n           \n        }\n         \n       \n        else{\n            return 'd';\n        }\n   }\n   function check(address _address) view public returns(bool){\n       if(keccak256(abi.encodePacked((policys[_address].policy_type)))==keccak256(abi.encodePacked((\"a\")))\n       &&\n       (keccak256(abi.encodePacked((checkdesp(_address))))==(keccak256(abi.encodePacked((\"a\"))) ||\n       keccak256(abi.encodePacked((\"b\")))||keccak256(abi.encodePacked((\"c\")))))\n       ){\n           return true;\n       }\n       else\n       if(keccak256(abi.encodePacked((policys[_address].policy_type)))==keccak256(abi.encodePacked((\"b\")))\n       &&\n       (keccak256(abi.encodePacked((checkdesp(_address))))==(\n       keccak256(abi.encodePacked((\"b\")))||keccak256(abi.encodePacked((\"c\")))))\n       ){\n           return true;\n       }\n       else\n       if(keccak256(abi.encodePacked((policys[_address].policy_type)))==keccak256(abi.encodePacked((\"c\")))\n       &&\n       (keccak256(abi.encodePacked((checkdesp(_address))))==(\n       keccak256(abi.encodePacked((\"c\")))))\n       ){\n           return true;\n       }\n       else\n       false;\n   }\n   */\n/*\nclaim the account is insurance and after double click the amount is reflected to patient\n*/\n\n    function claim(address _address) payable public onlyInsure {\n        var policy = policys[_address];\n        require(policyids[policy.policy_id].coverage>= hospitals[_address].total_amount);\n        require(policys[_address].p_count==2);\n        require(hospitals[_address].signed);\n        require(policyids[policy.policy_id].claimed);\n        require(checkpolicy_id(_address));\n        if(keccak256(abi.encodePacked(policyids[policy.policy_id].status))== keccak256(abi.encodePacked(\"hop\"))){\n            h1.transfer(hospitals[_address].total_amount);\n        }\n        else if(keccak256(abi.encodePacked(policyids[policy.policy_id].status))== keccak256(abi.encodePacked(\"self\"))){\n        _address.transfer(hospitals[_address].total_amount);\n        }\n       policyids[policy.policy_id].claimed=false;//so now he has claimed cant claim again\n       \n    }\n \n}\n\n/*\nbasic flow:\n..deploy under insurance account\n..patient account\n    1. setPatients\n    2. setPolicys\n    3. getPolicys\nmsg.value set to some ether approx 10\n    4. premium\n..hospital account\n    5. setHospitals or PatientsRemburseSubmision\n    6. checkpolicy_id -true contine else no claim (to be implemented in front end) or signRembursement\n..insurance account\nmsg.value set to some ether approx 10    \n    7. fallback\n    8. claim\n*/\n\n/*\nadded features:\n    1. getPatients\n    2. getHospitals\n    3. getbalance\n*/",
  "sourcePath": "C:/Users/pavan/myproject/contracts/Insurance.sol",
  "compiler": {
    "name": "solc",
    "version": "0.4.24+commit.e67f0147.Emscripten.clang"
  },
  "schemaVersion": "3.0.22",
  "updatedAt": "2020-05-17T17:33:20.308Z",
  "networkType": "ethereum",
  "devdoc": {
    "methods": {}
  },
  "userdoc": {
    "methods": {}
  }
}